{
  "_format": "hh-sol-artifact-1",
  "contractName": "HLEALM",
  "sourceName": "src/modules/HLEALM.sol",
  "abi": [
    {
      "inputs": [
        {
          "internalType": "address",
          "name": "_pool",
          "type": "address"
        },
        {
          "internalType": "uint64",
          "name": "_token0Index",
          "type": "uint64"
        },
        {
          "internalType": "uint64",
          "name": "_token1Index",
          "type": "uint64"
        },
        {
          "internalType": "address",
          "name": "_feeRecipient",
          "type": "address"
        },
        {
          "internalType": "address",
          "name": "_owner",
          "type": "address"
        }
      ],
      "stateMutability": "nonpayable",
      "type": "constructor"
    },
    {
      "inputs": [],
      "name": "HLEALM__InsufficientLiquidity",
      "type": "error"
    },
    {
      "inputs": [],
      "name": "HLEALM__InvalidSpreadConfig",
      "type": "error"
    },
    {
      "inputs": [],
      "name": "HLEALM__InvalidTokenPair",
      "type": "error"
    },
    {
      "inputs": [],
      "name": "HLEALM__NotInitialized",
      "type": "error"
    },
    {
      "inputs": [],
      "name": "HLEALM__OnlyPool",
      "type": "error"
    },
    {
      "inputs": [],
      "name": "HLEALM__Paused",
      "type": "error"
    },
    {
      "inputs": [],
      "name": "HLEALM__PriceDeviationTooHigh",
      "type": "error"
    },
    {
      "inputs": [],
      "name": "HLEALM__SlippageExceeded",
      "type": "error"
    },
    {
      "inputs": [],
      "name": "HLEALM__VolatilityTooHigh",
      "type": "error"
    },
    {
      "inputs": [],
      "name": "HLEALM__ZeroAddress",
      "type": "error"
    },
    {
      "inputs": [],
      "name": "L1OracleAdapter__StalePrice",
      "type": "error"
    },
    {
      "inputs": [],
      "name": "PrecompileLib__SpotPxPrecompileFailed",
      "type": "error"
    },
    {
      "inputs": [],
      "name": "TwoSpeedEWMA__InvalidAlpha",
      "type": "error"
    },
    {
      "inputs": [],
      "name": "TwoSpeedEWMA__NotInitialized",
      "type": "error"
    },
    {
      "inputs": [],
      "name": "TwoSpeedEWMA__ZeroPrice",
      "type": "error"
    },
    {
      "anonymous": false,
      "inputs": [
        {
          "indexed": true,
          "internalType": "address",
          "name": "recipient",
          "type": "address"
        },
        {
          "indexed": false,
          "internalType": "uint256",
          "name": "amount0",
          "type": "uint256"
        },
        {
          "indexed": false,
          "internalType": "uint256",
          "name": "amount1",
          "type": "uint256"
        }
      ],
      "name": "FeesCollected",
      "type": "event"
    },
    {
      "anonymous": false,
      "inputs": [
        {
          "indexed": true,
          "internalType": "address",
          "name": "sender",
          "type": "address"
        },
        {
          "indexed": false,
          "internalType": "uint256",
          "name": "amount0",
          "type": "uint256"
        },
        {
          "indexed": false,
          "internalType": "uint256",
          "name": "amount1",
          "type": "uint256"
        }
      ],
      "name": "LiquidityDeposited",
      "type": "event"
    },
    {
      "anonymous": false,
      "inputs": [
        {
          "indexed": true,
          "internalType": "address",
          "name": "recipient",
          "type": "address"
        },
        {
          "indexed": false,
          "internalType": "uint256",
          "name": "amount0",
          "type": "uint256"
        },
        {
          "indexed": false,
          "internalType": "uint256",
          "name": "amount1",
          "type": "uint256"
        }
      ],
      "name": "LiquidityWithdrawn",
      "type": "event"
    },
    {
      "anonymous": false,
      "inputs": [
        {
          "indexed": false,
          "internalType": "uint256",
          "name": "price",
          "type": "uint256"
        }
      ],
      "name": "ManualPriceSet",
      "type": "event"
    },
    {
      "anonymous": false,
      "inputs": [
        {
          "indexed": false,
          "internalType": "bool",
          "name": "useL1Oracle",
          "type": "bool"
        }
      ],
      "name": "OracleModeSet",
      "type": "event"
    },
    {
      "anonymous": false,
      "inputs": [
        {
          "indexed": true,
          "internalType": "address",
          "name": "previousOwner",
          "type": "address"
        },
        {
          "indexed": true,
          "internalType": "address",
          "name": "newOwner",
          "type": "address"
        }
      ],
      "name": "OwnershipTransferStarted",
      "type": "event"
    },
    {
      "anonymous": false,
      "inputs": [
        {
          "indexed": true,
          "internalType": "address",
          "name": "previousOwner",
          "type": "address"
        },
        {
          "indexed": true,
          "internalType": "address",
          "name": "newOwner",
          "type": "address"
        }
      ],
      "name": "OwnershipTransferred",
      "type": "event"
    },
    {
      "anonymous": false,
      "inputs": [
        {
          "indexed": false,
          "internalType": "bool",
          "name": "isPaused",
          "type": "bool"
        }
      ],
      "name": "Paused",
      "type": "event"
    },
    {
      "anonymous": false,
      "inputs": [
        {
          "indexed": false,
          "internalType": "uint256",
          "name": "kVol",
          "type": "uint256"
        },
        {
          "indexed": false,
          "internalType": "uint256",
          "name": "kImpact",
          "type": "uint256"
        }
      ],
      "name": "SpreadConfigUpdated",
      "type": "event"
    },
    {
      "anonymous": false,
      "inputs": [
        {
          "indexed": true,
          "internalType": "address",
          "name": "recipient",
          "type": "address"
        },
        {
          "indexed": false,
          "internalType": "uint256",
          "name": "amount0",
          "type": "uint256"
        },
        {
          "indexed": false,
          "internalType": "uint256",
          "name": "amount1",
          "type": "uint256"
        }
      ],
      "name": "SurplusCollected",
      "type": "event"
    },
    {
      "anonymous": false,
      "inputs": [
        {
          "indexed": true,
          "internalType": "address",
          "name": "sender",
          "type": "address"
        },
        {
          "indexed": false,
          "internalType": "bool",
          "name": "isBuy",
          "type": "bool"
        },
        {
          "indexed": false,
          "internalType": "uint256",
          "name": "amountIn",
          "type": "uint256"
        },
        {
          "indexed": false,
          "internalType": "uint256",
          "name": "amountOut",
          "type": "uint256"
        },
        {
          "indexed": false,
          "internalType": "uint256",
          "name": "oraclePrice",
          "type": "uint256"
        },
        {
          "indexed": false,
          "internalType": "uint256",
          "name": "effectivePrice",
          "type": "uint256"
        },
        {
          "indexed": false,
          "internalType": "uint256",
          "name": "spreadUsed",
          "type": "uint256"
        }
      ],
      "name": "SwapExecuted",
      "type": "event"
    },
    {
      "anonymous": false,
      "inputs": [
        {
          "indexed": false,
          "internalType": "uint256",
          "name": "fastEWMA",
          "type": "uint256"
        },
        {
          "indexed": false,
          "internalType": "uint256",
          "name": "slowEWMA",
          "type": "uint256"
        },
        {
          "indexed": false,
          "internalType": "uint256",
          "name": "deviationBps",
          "type": "uint256"
        },
        {
          "indexed": false,
          "internalType": "uint256",
          "name": "thresholdBps",
          "type": "uint256"
        }
      ],
      "name": "VolatilityGated",
      "type": "event"
    },
    {
      "anonymous": false,
      "inputs": [
        {
          "indexed": false,
          "internalType": "uint256",
          "name": "volatilityThresholdBps",
          "type": "uint256"
        }
      ],
      "name": "VolatilityThresholdUpdated",
      "type": "event"
    },
    {
      "anonymous": false,
      "inputs": [
        {
          "indexed": true,
          "internalType": "address",
          "name": "optimizer",
          "type": "address"
        }
      ],
      "name": "YieldOptimizerSet",
      "type": "event"
    },
    {
      "inputs": [],
      "name": "acceptOwnership",
      "outputs": [],
      "stateMutability": "nonpayable",
      "type": "function"
    },
    {
      "inputs": [],
      "name": "accumulatedFees0",
      "outputs": [
        {
          "internalType": "uint256",
          "name": "",
          "type": "uint256"
        }
      ],
      "stateMutability": "view",
      "type": "function"
    },
    {
      "inputs": [],
      "name": "accumulatedFees1",
      "outputs": [
        {
          "internalType": "uint256",
          "name": "",
          "type": "uint256"
        }
      ],
      "stateMutability": "view",
      "type": "function"
    },
    {
      "inputs": [
        {
          "internalType": "uint256",
          "name": "amountIn",
          "type": "uint256"
        },
        {
          "internalType": "uint256",
          "name": "reserveIn",
          "type": "uint256"
        }
      ],
      "name": "calculateSpreadDetails",
      "outputs": [
        {
          "internalType": "uint256",
          "name": "volSpread",
          "type": "uint256"
        },
        {
          "internalType": "uint256",
          "name": "impactSpread",
          "type": "uint256"
        },
        {
          "internalType": "uint256",
          "name": "totalSpread",
          "type": "uint256"
        }
      ],
      "stateMutability": "view",
      "type": "function"
    },
    {
      "inputs": [],
      "name": "canTrade",
      "outputs": [
        {
          "internalType": "bool",
          "name": "",
          "type": "bool"
        }
      ],
      "stateMutability": "view",
      "type": "function"
    },
    {
      "inputs": [],
      "name": "collectFees",
      "outputs": [],
      "stateMutability": "nonpayable",
      "type": "function"
    },
    {
      "inputs": [],
      "name": "collectSurplus",
      "outputs": [],
      "stateMutability": "nonpayable",
      "type": "function"
    },
    {
      "inputs": [
        {
          "internalType": "uint256",
          "name": "amount0",
          "type": "uint256"
        },
        {
          "internalType": "uint256",
          "name": "amount1",
          "type": "uint256"
        },
        {
          "internalType": "address",
          "name": "sender",
          "type": "address"
        }
      ],
      "name": "depositLiquidity",
      "outputs": [
        {
          "internalType": "uint256",
          "name": "amount0Deposited",
          "type": "uint256"
        },
        {
          "internalType": "uint256",
          "name": "amount1Deposited",
          "type": "uint256"
        }
      ],
      "stateMutability": "nonpayable",
      "type": "function"
    },
    {
      "inputs": [],
      "name": "feeRecipient",
      "outputs": [
        {
          "internalType": "address",
          "name": "",
          "type": "address"
        }
      ],
      "stateMutability": "view",
      "type": "function"
    },
    {
      "inputs": [
        {
          "internalType": "uint256",
          "name": "_fastVar",
          "type": "uint256"
        },
        {
          "internalType": "uint256",
          "name": "_slowVar",
          "type": "uint256"
        }
      ],
      "name": "forceSetVariance",
      "outputs": [],
      "stateMutability": "nonpayable",
      "type": "function"
    },
    {
      "inputs": [],
      "name": "getAccumulatedFees",
      "outputs": [
        {
          "internalType": "uint256",
          "name": "fees0",
          "type": "uint256"
        },
        {
          "internalType": "uint256",
          "name": "fees1",
          "type": "uint256"
        }
      ],
      "stateMutability": "view",
      "type": "function"
    },
    {
      "inputs": [
        {
          "components": [
            {
              "internalType": "bool",
              "name": "isZeroToOne",
              "type": "bool"
            },
            {
              "internalType": "uint256",
              "name": "amountInMinusFee",
              "type": "uint256"
            },
            {
              "internalType": "uint256",
              "name": "feeInBips",
              "type": "uint256"
            },
            {
              "internalType": "address",
              "name": "sender",
              "type": "address"
            },
            {
              "internalType": "address",
              "name": "recipient",
              "type": "address"
            },
            {
              "internalType": "address",
              "name": "tokenOutSwap",
              "type": "address"
            }
          ],
          "internalType": "struct ALMLiquidityQuoteInput",
          "name": "_almLiquidityQuoteInput",
          "type": "tuple"
        },
        {
          "internalType": "bytes",
          "name": "",
          "type": "bytes"
        },
        {
          "internalType": "bytes",
          "name": "",
          "type": "bytes"
        }
      ],
      "name": "getLiquidityQuote",
      "outputs": [
        {
          "components": [
            {
              "internalType": "bool",
              "name": "isCallbackOnSwap",
              "type": "bool"
            },
            {
              "internalType": "uint256",
              "name": "amountOut",
              "type": "uint256"
            },
            {
              "internalType": "uint256",
              "name": "amountInFilled",
              "type": "uint256"
            }
          ],
          "internalType": "struct ALMLiquidityQuote",
          "name": "quote",
          "type": "tuple"
        }
      ],
      "stateMutability": "nonpayable",
      "type": "function"
    },
    {
      "inputs": [],
      "name": "getOracleMidPrice",
      "outputs": [
        {
          "internalType": "uint256",
          "name": "price",
          "type": "uint256"
        }
      ],
      "stateMutability": "view",
      "type": "function"
    },
    {
      "inputs": [
        {
          "internalType": "address",
          "name": "tokenIn",
          "type": "address"
        },
        {
          "internalType": "address",
          "name": "tokenOut",
          "type": "address"
        },
        {
          "internalType": "uint256",
          "name": "amountIn",
          "type": "uint256"
        }
      ],
      "name": "getQuote",
      "outputs": [
        {
          "internalType": "uint256",
          "name": "amountOut",
          "type": "uint256"
        }
      ],
      "stateMutability": "view",
      "type": "function"
    },
    {
      "inputs": [
        {
          "internalType": "uint256",
          "name": "amountIn",
          "type": "uint256"
        },
        {
          "internalType": "address",
          "name": "tokenIn",
          "type": "address"
        }
      ],
      "name": "getSpread",
      "outputs": [
        {
          "internalType": "uint256",
          "name": "volSpread",
          "type": "uint256"
        },
        {
          "internalType": "uint256",
          "name": "impactSpread",
          "type": "uint256"
        },
        {
          "internalType": "uint256",
          "name": "totalSpread",
          "type": "uint256"
        }
      ],
      "stateMutability": "view",
      "type": "function"
    },
    {
      "inputs": [],
      "name": "getSpreadConfig",
      "outputs": [
        {
          "internalType": "uint256",
          "name": "_kVol",
          "type": "uint256"
        },
        {
          "internalType": "uint256",
          "name": "_kImpact",
          "type": "uint256"
        }
      ],
      "stateMutability": "view",
      "type": "function"
    },
    {
      "inputs": [],
      "name": "getTotalLiquidity",
      "outputs": [
        {
          "internalType": "uint256",
          "name": "liquidity",
          "type": "uint256"
        }
      ],
      "stateMutability": "view",
      "type": "function"
    },
    {
      "inputs": [],
      "name": "getVariance",
      "outputs": [
        {
          "internalType": "uint256",
          "name": "fastVar",
          "type": "uint256"
        },
        {
          "internalType": "uint256",
          "name": "slowVar",
          "type": "uint256"
        },
        {
          "internalType": "uint256",
          "name": "maxVar",
          "type": "uint256"
        }
      ],
      "stateMutability": "view",
      "type": "function"
    },
    {
      "inputs": [],
      "name": "getVolatility",
      "outputs": [
        {
          "components": [
            {
              "internalType": "uint256",
              "name": "fastEWMA",
              "type": "uint256"
            },
            {
              "internalType": "uint256",
              "name": "slowEWMA",
              "type": "uint256"
            },
            {
              "internalType": "uint256",
              "name": "fastVar",
              "type": "uint256"
            },
            {
              "internalType": "uint256",
              "name": "slowVar",
              "type": "uint256"
            },
            {
              "internalType": "uint256",
              "name": "deviationBps",
              "type": "uint256"
            },
            {
              "internalType": "bool",
              "name": "isVolatile",
              "type": "bool"
            }
          ],
          "internalType": "struct TwoSpeedEWMA.VolatilityReading",
          "name": "reading",
          "type": "tuple"
        }
      ],
      "stateMutability": "view",
      "type": "function"
    },
    {
      "inputs": [],
      "name": "initialize",
      "outputs": [],
      "stateMutability": "nonpayable",
      "type": "function"
    },
    {
      "inputs": [],
      "name": "initializeEWMA",
      "outputs": [],
      "stateMutability": "nonpayable",
      "type": "function"
    },
    {
      "inputs": [
        {
          "internalType": "uint256",
          "name": "fastAlpha",
          "type": "uint256"
        },
        {
          "internalType": "uint256",
          "name": "slowAlpha",
          "type": "uint256"
        }
      ],
      "name": "initializeWithAlphas",
      "outputs": [],
      "stateMutability": "nonpayable",
      "type": "function"
    },
    {
      "inputs": [],
      "name": "kImpact",
      "outputs": [
        {
          "internalType": "uint256",
          "name": "",
          "type": "uint256"
        }
      ],
      "stateMutability": "view",
      "type": "function"
    },
    {
      "inputs": [],
      "name": "kVol",
      "outputs": [
        {
          "internalType": "uint256",
          "name": "",
          "type": "uint256"
        }
      ],
      "stateMutability": "view",
      "type": "function"
    },
    {
      "inputs": [],
      "name": "manualPrice",
      "outputs": [
        {
          "internalType": "uint256",
          "name": "",
          "type": "uint256"
        }
      ],
      "stateMutability": "view",
      "type": "function"
    },
    {
      "inputs": [
        {
          "internalType": "uint256",
          "name": "_amount0",
          "type": "uint256"
        },
        {
          "internalType": "uint256",
          "name": "_amount1",
          "type": "uint256"
        },
        {
          "internalType": "bytes",
          "name": "",
          "type": "bytes"
        }
      ],
      "name": "onDepositLiquidityCallback",
      "outputs": [],
      "stateMutability": "nonpayable",
      "type": "function"
    },
    {
      "inputs": [
        {
          "internalType": "bool",
          "name": "",
          "type": "bool"
        },
        {
          "internalType": "uint256",
          "name": "",
          "type": "uint256"
        },
        {
          "internalType": "uint256",
          "name": "",
          "type": "uint256"
        }
      ],
      "name": "onSwapCallback",
      "outputs": [],
      "stateMutability": "nonpayable",
      "type": "function"
    },
    {
      "inputs": [],
      "name": "owner",
      "outputs": [
        {
          "internalType": "address",
          "name": "",
          "type": "address"
        }
      ],
      "stateMutability": "view",
      "type": "function"
    },
    {
      "inputs": [],
      "name": "paused",
      "outputs": [
        {
          "internalType": "bool",
          "name": "",
          "type": "bool"
        }
      ],
      "stateMutability": "view",
      "type": "function"
    },
    {
      "inputs": [],
      "name": "pendingOwner",
      "outputs": [
        {
          "internalType": "address",
          "name": "",
          "type": "address"
        }
      ],
      "stateMutability": "view",
      "type": "function"
    },
    {
      "inputs": [],
      "name": "pool",
      "outputs": [
        {
          "internalType": "contract ISovereignPool",
          "name": "",
          "type": "address"
        }
      ],
      "stateMutability": "view",
      "type": "function"
    },
    {
      "inputs": [
        {
          "internalType": "address",
          "name": "tokenIn",
          "type": "address"
        },
        {
          "internalType": "address",
          "name": "tokenOut",
          "type": "address"
        },
        {
          "internalType": "uint256",
          "name": "amountIn",
          "type": "uint256"
        }
      ],
      "name": "previewSwap",
      "outputs": [
        {
          "internalType": "uint256",
          "name": "amountOut",
          "type": "uint256"
        },
        {
          "internalType": "uint256",
          "name": "spreadFee",
          "type": "uint256"
        },
        {
          "internalType": "bool",
          "name": "canExecute",
          "type": "bool"
        }
      ],
      "stateMutability": "view",
      "type": "function"
    },
    {
      "inputs": [],
      "name": "priceEWMA",
      "outputs": [
        {
          "internalType": "uint256",
          "name": "fastEWMA",
          "type": "uint256"
        },
        {
          "internalType": "uint256",
          "name": "slowEWMA",
          "type": "uint256"
        },
        {
          "internalType": "uint256",
          "name": "fastVar",
          "type": "uint256"
        },
        {
          "internalType": "uint256",
          "name": "slowVar",
          "type": "uint256"
        },
        {
          "internalType": "uint256",
          "name": "fastAlpha",
          "type": "uint256"
        },
        {
          "internalType": "uint256",
          "name": "slowAlpha",
          "type": "uint256"
        },
        {
          "internalType": "uint64",
          "name": "lastUpdateTime",
          "type": "uint64"
        },
        {
          "internalType": "bool",
          "name": "initialized",
          "type": "bool"
        }
      ],
      "stateMutability": "view",
      "type": "function"
    },
    {
      "inputs": [],
      "name": "renounceOwnership",
      "outputs": [],
      "stateMutability": "nonpayable",
      "type": "function"
    },
    {
      "inputs": [
        {
          "internalType": "address",
          "name": "_recipient",
          "type": "address"
        }
      ],
      "name": "setFeeRecipient",
      "outputs": [],
      "stateMutability": "nonpayable",
      "type": "function"
    },
    {
      "inputs": [
        {
          "internalType": "uint256",
          "name": "_price",
          "type": "uint256"
        }
      ],
      "name": "setManualPrice",
      "outputs": [],
      "stateMutability": "nonpayable",
      "type": "function"
    },
    {
      "inputs": [
        {
          "internalType": "bool",
          "name": "_useL1Oracle",
          "type": "bool"
        }
      ],
      "name": "setOracleMode",
      "outputs": [],
      "stateMutability": "nonpayable",
      "type": "function"
    },
    {
      "inputs": [
        {
          "internalType": "bool",
          "name": "_paused",
          "type": "bool"
        }
      ],
      "name": "setPaused",
      "outputs": [],
      "stateMutability": "nonpayable",
      "type": "function"
    },
    {
      "inputs": [
        {
          "internalType": "uint256",
          "name": "_kVol",
          "type": "uint256"
        },
        {
          "internalType": "uint256",
          "name": "_kImpact",
          "type": "uint256"
        }
      ],
      "name": "setSpreadConfig",
      "outputs": [],
      "stateMutability": "nonpayable",
      "type": "function"
    },
    {
      "inputs": [
        {
          "internalType": "uint64",
          "name": "_token0Index",
          "type": "uint64"
        },
        {
          "internalType": "uint64",
          "name": "_token1Index",
          "type": "uint64"
        }
      ],
      "name": "setTokenIndices",
      "outputs": [],
      "stateMutability": "nonpayable",
      "type": "function"
    },
    {
      "inputs": [
        {
          "internalType": "uint256",
          "name": "_volatilityThresholdBps",
          "type": "uint256"
        }
      ],
      "name": "setVolatilityThreshold",
      "outputs": [],
      "stateMutability": "nonpayable",
      "type": "function"
    },
    {
      "inputs": [
        {
          "internalType": "address",
          "name": "_optimizer",
          "type": "address"
        }
      ],
      "name": "setYieldOptimizer",
      "outputs": [],
      "stateMutability": "nonpayable",
      "type": "function"
    },
    {
      "inputs": [],
      "name": "surplusCaptured0",
      "outputs": [
        {
          "internalType": "uint256",
          "name": "",
          "type": "uint256"
        }
      ],
      "stateMutability": "view",
      "type": "function"
    },
    {
      "inputs": [],
      "name": "surplusCaptured1",
      "outputs": [
        {
          "internalType": "uint256",
          "name": "",
          "type": "uint256"
        }
      ],
      "stateMutability": "view",
      "type": "function"
    },
    {
      "inputs": [],
      "name": "token0",
      "outputs": [
        {
          "internalType": "address",
          "name": "",
          "type": "address"
        }
      ],
      "stateMutability": "view",
      "type": "function"
    },
    {
      "inputs": [],
      "name": "token0Index",
      "outputs": [
        {
          "internalType": "uint64",
          "name": "",
          "type": "uint64"
        }
      ],
      "stateMutability": "view",
      "type": "function"
    },
    {
      "inputs": [],
      "name": "token1",
      "outputs": [
        {
          "internalType": "address",
          "name": "",
          "type": "address"
        }
      ],
      "stateMutability": "view",
      "type": "function"
    },
    {
      "inputs": [],
      "name": "token1Index",
      "outputs": [
        {
          "internalType": "uint64",
          "name": "",
          "type": "uint64"
        }
      ],
      "stateMutability": "view",
      "type": "function"
    },
    {
      "inputs": [
        {
          "internalType": "address",
          "name": "newOwner",
          "type": "address"
        }
      ],
      "name": "transferOwnership",
      "outputs": [],
      "stateMutability": "nonpayable",
      "type": "function"
    },
    {
      "inputs": [],
      "name": "updateEWMA",
      "outputs": [],
      "stateMutability": "nonpayable",
      "type": "function"
    },
    {
      "inputs": [],
      "name": "useL1Oracle",
      "outputs": [
        {
          "internalType": "bool",
          "name": "",
          "type": "bool"
        }
      ],
      "stateMutability": "view",
      "type": "function"
    },
    {
      "inputs": [],
      "name": "volatilityThresholdBps",
      "outputs": [
        {
          "internalType": "uint256",
          "name": "",
          "type": "uint256"
        }
      ],
      "stateMutability": "view",
      "type": "function"
    },
    {
      "inputs": [
        {
          "internalType": "uint256",
          "name": "amount0",
          "type": "uint256"
        },
        {
          "internalType": "uint256",
          "name": "amount1",
          "type": "uint256"
        },
        {
          "internalType": "address",
          "name": "recipient",
          "type": "address"
        }
      ],
      "name": "withdrawLiquidity",
      "outputs": [],
      "stateMutability": "nonpayable",
      "type": "function"
    },
    {
      "inputs": [],
      "name": "yieldOptimizer",
      "outputs": [
        {
          "internalType": "address",
          "name": "",
          "type": "address"
        }
      ],
      "stateMutability": "view",
      "type": "function"
    }
  ],
  "bytecode": "0x60e06040523480156200001157600080fd5b506040516200383b3803806200383b8339810160408190526200003491620002d5565b6200003f3362000232565b60016002556001600160a01b0385166200006c576040516308990bff60e21b815260040160405180910390fd5b6001600160a01b03821662000094576040516308990bff60e21b815260040160405180910390fd5b6001600160a01b038116620000bc576040516308990bff60e21b815260040160405180910390fd5b6001600160a01b038516608081905260408051630dfe168160e01b81529051630dfe1681916004808201926020929091908290030181865afa15801562000107573d6000803e3d6000fd5b505050506040513d601f19601f820116820180604052508101906200012d919062000345565b6001600160a01b031660a0816001600160a01b0316815250506080516001600160a01b031663d21220a76040518163ffffffff1660e01b8152600401602060405180830381865afa15801562000187573d6000803e3d6000fd5b505050506040513d601f19601f82011682018060405250810190620001ad919062000345565b6001600160a01b0390811660c052600380546001600160401b0386811668010000000000000000026001600160801b031990921690881617179055601280549184166001600160a01b03199092169190911790556064600b5566b1a2bc2ec50000600c55662386f26fc10000600d55620002278162000232565b50505050506200036a565b600180546001600160a01b03191690556200024d8162000250565b50565b600080546001600160a01b038381166001600160a01b0319831681178455604051919092169283917f8be0079c531659141344cd1fd0a4f28419497f9722a3daafe3b4186f6b6457e09190a35050565b80516001600160a01b0381168114620002b857600080fd5b919050565b80516001600160401b0381168114620002b857600080fd5b600080600080600060a08688031215620002ee57600080fd5b620002f986620002a0565b94506200030960208701620002bd565b93506200031960408701620002bd565b92506200032960608701620002a0565b91506200033960808701620002a0565b90509295509295909350565b6000602082840312156200035857600080fd5b6200036382620002a0565b9392505050565b60805160a05160c0516133a562000496600039600081816107520152818161095401528181610bca01528181610f08015281816111400152818161117a01528181611271015281816114fe015281816115380152818161167001528181611a7201528181611b020152611ea80152600081816103830152818161091a01528181610b8a01528181610ecd01528181611104015281816111b601528181611297015281816114c2015281816115740152818161163001528181611a9801528181611adc0152611df8015260008181610452015281816108c901528181610dfd01528181610f790152818161105f015281816112e0015281816113e70152818161190101528181611b3901528181611dcb01528181611e7a015281816122e1015261261901526133a56000f3fe608060405234801561001057600080fd5b50600436106103425760003560e01c80637f2917ce116101b8578063beb84a8511610104578063dbd4f70f116100a2578063e86e278f1161007c578063e86e278f146107b3578063ede5e584146107c6578063f2fde38b146107fd578063f818b65b1461081057600080fd5b8063dbd4f70f14610787578063e30c39781461078f578063e74b981b146107a057600080fd5b8063ce7fc4f5116100de578063ce7fc4f514610727578063d1d736351461073a578063d21220a71461074d578063d7a718681461077457600080fd5b8063beb84a85146106f9578063c515ee231461070c578063c87965721461071f57600080fd5b80639d2c370711610171578063a2c9d6301161014b578063a2c9d630146106a5578063a3f3d722146106ae578063b10ae776146106c1578063bbbaffab146106c957600080fd5b80639d2c37071461067e5780639f8e19ef14610687578063a29c23731461069a57600080fd5b80637f2917ce1461062e5780638129fc1c146106375780638d1a20911461063f5780638da5cb5b1461064757806395e17d841461065857806399462d851461066b57600080fd5b80633af2888b116102925780635df45a371161023057806371084cda1161020a57806371084cda14610602578063715018a61461060b57806379ba5097146106135780637b4cab3d1461061b57600080fd5b80635df45a37146105c35780636574c01d146105df57806365fa9f37146105f957600080fd5b8063469048401161026c5780634690484014610576578063595b5447146105895780635b8e9c2c1461059c5780635c975abb146105af57600080fd5b80633af2888b146104f55780633e09e7771461054b578063465ee0dc1461056e57600080fd5b806320442798116102ff5780632f05205c116102d95780632f05205c146104c9578063338a9cf0146104d157806333cd09af146104e457806335c7e925146104ed57600080fd5b806320442798146104745780632a87bfe51461049f5780632d4b23bd146104b657600080fd5b806304a549a814610347578063068c92b9146103695780630dfe16811461037e5780630ef83b86146103bd57806316c38b3c1461043a57806316f0115b1461044d575b600080fd5b6015546103549060ff1681565b60405190151581526020015b60405180910390f35b61037c610377366004612eb7565b610819565b005b6103a57f000000000000000000000000000000000000000000000000000000000000000081565b6040516001600160a01b039091168152602001610360565b600454600554600654600754600854600954600a546103f4969594939291906001600160401b03811690600160401b900460ff1688565b604080519889526020890197909752958701949094526060860192909252608085015260a08401526001600160401b031660c0830152151560e082015261010001610360565b61037c610448366004612eb7565b610869565b6103a57f000000000000000000000000000000000000000000000000000000000000000081565b600354610487906001600160401b031681565b6040516001600160401b039091168152602001610360565b6104a8600c5481565b604051908152602001610360565b61037c6104c4366004612eea565b6108be565b610354610a3a565b61037c6104df366004612fc9565b610a69565b6104a8600d5481565b6104a8610abb565b6104fd610aca565b6040516103609190600060c082019050825182526020830151602083015260408301516040830152606083015160608301526080830151608083015260a0830151151560a083015292915050565b610553610b0b565b60408051938452602084019290925290820152606001610360565b61037c610b61565b6012546103a5906001600160a01b031681565b61037c610597366004612fe4565b610c40565b6105536105aa366004612fe4565b610c61565b60135461035490600160a01b900460ff1681565b600e54600f545b60408051928352602083019190915201610360565b60035461048790600160401b90046001600160401b031681565b6104a860115481565b6104a8600b5481565b61037c610cf0565b61037c610d04565b6013546103a5906001600160a01b031681565b6104a8600e5481565b61037c610d83565b6104a8610da2565b6000546001600160a01b03166103a5565b61037c610666366004613006565b610dac565b6105ca610679366004613006565b610ea7565b6104a8600f5481565b61037c610695366004612fe4565b611041565b600c54600d546105ca565b6104a860145481565b61037c6106bc36600461303b565b611054565b61037c61109d565b6106dc6106d7366004613070565b6110fc565b604080519384526020840192909252151590820152606001610360565b6105536107073660046130ac565b611370565b6104a861071a366004613070565b6114bd565b61037c611607565b61037c6107353660046130ed565b6116de565b61037c610748366004613126565b611720565b6103a57f000000000000000000000000000000000000000000000000000000000000000081565b61037c610782366004613126565b61175d565b61037c61179a565b6001546001600160a01b03166103a5565b61037c6107ae366004612fc9565b6117f5565b61037c6107c1366004612fe4565b611846565b6107d96107d4366004613187565b6118d0565b60408051825115158152602080840151908201529181015190820152606001610360565b61037c61080b366004612fc9565b611c86565b6104a860105481565b610821611cf7565b6015805460ff19168215159081179091556040519081527fdd878747169028bdb67a8e5ba82f3954720e5bc5b5ec9a5fdfdd3cd0830228a3906020015b60405180910390a150565b610871611cf7565b60138054821515600160a01b0260ff60a01b199091161790556040517f0e2fb031ee032dc02d8011dc50b816eb450cf856abd8261680dac74f72165bd29061085e90831515815260200190565b336001600160a01b037f000000000000000000000000000000000000000000000000000000000000000016146109075760405163634bc70560e11b815260040160405180910390fd5b8215610941576109416001600160a01b037f0000000000000000000000000000000000000000000000000000000000000000163385611d51565b811561097b5761097b6001600160a01b037f0000000000000000000000000000000000000000000000000000000000000000163384611d51565b6013546001600160a01b031615610a35576000610996611db4565b601354604051602481018390529192506000916001600160a01b039091169060440160408051601f198184030181529181526020820180516001600160e01b0316636768488960e11b179052516109ed9190613234565b6000604051808303816000865af19150503d8060008114610a2a576040519150601f19603f3d011682016040523d82523d6000602084013e610a2f565b606091505b50505050505b505050565b600a54600090600160401b900460ff16610a545750600090565b600b54610a6390600490611f55565b15905090565b610a71611cf7565b601380546001600160a01b0319166001600160a01b0383169081179091556040517ffc9644fe2df71698bac6f06561fa34267f572d47e7f989fbc515f4ef2d157ddb90600090a250565b6000610ac5611db4565b905090565b610ad2612e71565b600a54600160401b900460ff16610afc57604051630bc39a9560e41b815260040160405180910390fd5b600b54610ac590600490611f93565b600a5460009081908190600160401b900460ff16610b3c57604051630bc39a9560e41b815260040160405180910390fd5b610b466004611feb565b9093509150818311610b585781610b5a565b825b9050909192565b6010805460118054600093849055929055908115610bb357601254610bb3906001600160a01b037f00000000000000000000000000000000000000000000000000000000000000008116911684611d51565b8015610bf357601254610bf3906001600160a01b037f00000000000000000000000000000000000000000000000000000000000000008116911683611d51565b60125460408051848152602081018490526001600160a01b03909216917f9dcc99a1b17b7cd10678003bcc989988b1c3f6c4f23222693a65e677e3af386291015b60405180910390a25050565b610c48611cf7565b6000610c5261202d565b9050610a35600482858561208f565b600080600080610c71600461217f565b9050670de0b6b3a7640000600c5482610c8a9190613266565b610c94919061327d565b935060008511610ca5576000610cbe565b84600d5487610cb49190613266565b610cbe919061327d565b9250610cca838561329f565b91506706f05b59d3b20000821115610ce8576706f05b59d3b2000091505b509250925092565b610cf8611cf7565b610d0260006121cf565b565b60015433906001600160a01b03168114610d775760405162461bcd60e51b815260206004820152602960248201527f4f776e61626c6532537465703a2063616c6c6572206973206e6f7420746865206044820152683732bb9037bbb732b960b91b60648201526084015b60405180910390fd5b610d80816121cf565b50565b610d8b611cf7565b6000610d9561202d565b9050610d806004826121e8565b6000610ac561202d565b610db4611cf7565b610dbc612203565b6040516301c48a4360e61b815260048101849052602481018390523060448201526001600160a01b03828116606483015260a06084830152600060a48301527f0000000000000000000000000000000000000000000000000000000000000000169063712290c09060c401600060405180830381600087803b158015610e4157600080fd5b505af1158015610e55573d6000803e3d6000fd5b505060408051868152602081018690526001600160a01b03851693507fb195a67e698c5700e4f48f7b7748dda3a206ee2767ef024b61a26d7b17b2d63a92500160405180910390a2610a356001600255565b600080610eb2611cf7565b610eba612203565b8415610ef557610ef56001600160a01b037f00000000000000000000000000000000000000000000000000000000000000001684308861225a565b8315610f3057610f306001600160a01b037f00000000000000000000000000000000000000000000000000000000000000001684308761225a565b6040516320d20f4f60e11b815260048101869052602481018590526001600160a01b03848116604483015260a06064830152600060a4830181905260c0608484015260c48301527f000000000000000000000000000000000000000000000000000000000000000016906341a41e9e9060e40160408051808303816000875af1158015610fc1573d6000803e3d6000fd5b505050506040513d601f19601f82011682018060405250810190610fe591906132b2565b60408051838152602081018390529294509092506001600160a01b038516917fb7cd4486a08dcd2bf7da217a07d1069da69db8ffb3518c7014d6e6d4d973a552910160405180910390a26110396001600255565b935093915050565b611049611cf7565b600691909155600755565b336001600160a01b037f00000000000000000000000000000000000000000000000000000000000000001614610a355760405163634bc70560e11b815260040160405180910390fd5b6110a5611cf7565b60006110af61202d565b9050600081116110f15760405162461bcd60e51b815260206004820152600d60248201526c141c9a58d9481b9bdd081cd95d609a1b6044820152606401610d6e565b610d806004826121e8565b6000806000807f00000000000000000000000000000000000000000000000000000000000000006001600160a01b0316876001600160a01b031614801561117457507f00000000000000000000000000000000000000000000000000000000000000006001600160a01b0316866001600160a01b0316145b905060007f00000000000000000000000000000000000000000000000000000000000000006001600160a01b0316886001600160a01b03161480156111ea57507f00000000000000000000000000000000000000000000000000000000000000006001600160a01b0316876001600160a01b0316145b9050811580156111f8575080155b1561120f5760008060009450945094505050611367565b600a54600160401b900460ff166112325760008060009450945094505050611367565b600b5461124190600490611f55565b156112585760008060009450945094505050611367565b600061126261202d565b905060006112bb8885611295577f0000000000000000000000000000000000000000000000000000000000000000612298565b7f0000000000000000000000000000000000000000000000000000000000000000612298565b90506112c9888383876123b9565b6040516370a0823160e01b81526001600160a01b037f0000000000000000000000000000000000000000000000000000000000000000811660048301529299509097506000918b16906370a0823190602401602060405180830381865afa158015611338573d6000803e3d6000fd5b505050506040513d601f19601f8201168201806040525081019061135c91906132d6565b881115955050505050505b93509350939050565b600a5460009081908190600160401b900460ff166113a157604051630bc39a9560e41b815260040160405180910390fd5b60006113ad600461217f565b9050670de0b6b3a7640000600c54826113c69190613266565b6113d0919061327d565b6040516370a0823160e01b81526001600160a01b037f0000000000000000000000000000000000000000000000000000000000000000811660048301529195506000918716906370a0823190602401602060405180830381865afa15801561143c573d6000803e3d6000fd5b505050506040513d601f19601f8201168201806040525081019061146091906132d6565b90506000811161147157600061148a565b80600d54886114809190613266565b61148a919061327d565b9350611496848661329f565b92506706f05b59d3b200008311156114b4576706f05b59d3b2000092505b50509250925092565b6000807f00000000000000000000000000000000000000000000000000000000000000006001600160a01b0316856001600160a01b031614801561153257507f00000000000000000000000000000000000000000000000000000000000000006001600160a01b0316846001600160a01b0316145b905060007f00000000000000000000000000000000000000000000000000000000000000006001600160a01b0316866001600160a01b03161480156115a857507f00000000000000000000000000000000000000000000000000000000000000006001600160a01b0316856001600160a01b0316145b9050811580156115b6575080155b156115d457604051635975477760e11b815260040160405180910390fd5b60006115de61202d565b905060006115ec8689612298565b90506115fa868383876123b9565b5098975050505050505050565b600e8054600f805460009384905592905590811561165957601254611659906001600160a01b037f00000000000000000000000000000000000000000000000000000000000000008116911684611d51565b801561169957601254611699906001600160a01b037f00000000000000000000000000000000000000000000000000000000000000008116911683611d51565b60125460408051848152602081018490526001600160a01b03909216917f2e4fb6077d4acf86e12bb7411fb82b2b3eaa6a49787f4b1e17b423e7ea8411699101610c34565b6116e6611cf7565b600380546001600160401b03928316600160401b026fffffffffffffffffffffffffffffffff199091169290931691909117919091179055565b611728611cf7565b600b8190556040518181527ff2510ae1838122ec0293334ab4736fa75c51a329d30f7232d3155bdbe1181d109060200161085e565b611765611cf7565b60148190556040518181527fd5841842733e3e8b47d4f9a25d21b0eab8ca98ddcd6782a6271be6345cc8dfda9060200161085e565b60006117a461202d565b9050600081116117e65760405162461bcd60e51b815260206004820152600d60248201526c141c9a58d9481b9bdd081cd95d609a1b6044820152606401610d6e565b6117f1600482612485565b5050565b6117fd611cf7565b6001600160a01b038116611824576040516308990bff60e21b815260040160405180910390fd5b601280546001600160a01b0319166001600160a01b0392909216919091179055565b61184e611cf7565b670de0b6b3a764000082118061186b575067016345785d8a000081115b156118895760405163445451db60e01b815260040160405180910390fd5b600c829055600d81905560408051838152602081018390527f98c83810812c6f75d3603ee13eb37e6aa08693ef814708691ace965256b660ff910160405180910390a15050565b6118f6604051806060016040528060001515815260200160008152602001600081525090565b336001600160a01b037f0000000000000000000000000000000000000000000000000000000000000000161461193f5760405163634bc70560e11b815260040160405180910390fd5b601354600160a01b900460ff161561196a576040516331b5bb9360e21b815260040160405180910390fd5b600a54600160401b900460ff1661199457604051630bc39a9560e41b815260040160405180910390fd5b600061199e61202d565b905060006119ad600483612485565b9050600b5481608001511115611a2c578051602080830151608080850151600b5460408051968752948601939093529284019290925260608301527f22c0212e1347f03946c2ac71647a7039599efba481520ba15459a1c9c8657b30910160405180910390a1604051635332674b60e01b815260040160405180910390fd5b60208801803590600090611a40908b612eb7565b905060008360600151846040015111611a5d578360600151611a63565b83604001515b90506000611abe8484611a96577f0000000000000000000000000000000000000000000000000000000000000000611ab8565b7f00000000000000000000000000000000000000000000000000000000000000005b846125de565b9050600080611acf868985886126f1565b91509150600085611b00577f0000000000000000000000000000000000000000000000000000000000000000611b22565b7f00000000000000000000000000000000000000000000000000000000000000005b6040516370a0823160e01b81526001600160a01b037f00000000000000000000000000000000000000000000000000000000000000008116600483015291925084918316906370a0823190602401602060405180830381865afa158015611b8d573d6000803e3d6000fd5b505050506040513d601f19601f82011682018060405250810190611bb191906132d6565b1015611bd057604051633ed77fd160e01b815260040160405180910390fd5b611bdc87848b89612791565b60405180606001604052806000151581526020018481526020018881525099508e6060016020810190611c0f9190612fc9565b604080518815158152602081018a9052908101859052606081018b90526080810184905260a081018690526001600160a01b0391909116907f77e260ee96920bdc22e42693086faf03a5f75f928aa2f657eee2c3cf6276a0999060c00160405180910390a250505050505050505095945050505050565b611c8e611cf7565b600180546001600160a01b0383166001600160a01b03199091168117909155611cbf6000546001600160a01b031690565b6001600160a01b03167f38d16b8cac22d99fc7c124b9cd0de2d3fa1faef420bfe791d8c362d765e2270060405160405180910390a350565b6000546001600160a01b03163314610d025760405162461bcd60e51b815260206004820181905260248201527f4f776e61626c653a2063616c6c6572206973206e6f7420746865206f776e65726044820152606401610d6e565b6040516001600160a01b038316602482015260448101829052610a3590849063a9059cbb60e01b906064015b60408051601f198184030181529190526020810180516001600160e01b03166001600160e01b0319909316929092179091526128fd565b6040516370a0823160e01b81526001600160a01b037f00000000000000000000000000000000000000000000000000000000000000008116600483015260009182917f000000000000000000000000000000000000000000000000000000000000000016906370a0823190602401602060405180830381865afa158015611e3f573d6000803e3d6000fd5b505050506040513d601f19601f82011682018060405250810190611e6391906132d6565b6040516370a0823160e01b81526001600160a01b037f0000000000000000000000000000000000000000000000000000000000000000811660048301529192506000917f000000000000000000000000000000000000000000000000000000000000000016906370a0823190602401602060405180830381865afa158015611eef573d6000803e3d6000fd5b505050506040513d601f19601f82011682018060405250810190611f1391906132d6565b90506000611f1f61202d565b9050600081611f36670de0b6b3a764000085613266565b611f40919061327d565b9050611f4c818561329f565b94505050505090565b6006820154600090600160401b900460ff16611f7357506001611f8d565b6000611f87846000015485600101546129d2565b83109150505b92915050565b611f9b612e71565b6006830154600160401b900460ff16611fc75760405163d3e5bda560e01b815260040160405180910390fd5b611fe4836000015484600101548560020154866003015486612a28565b9392505050565b60068101546000908190600160401b900460ff1661201c5760405163d3e5bda560e01b815260040160405180910390fd5b505060028101546003909101549091565b60155460009060ff161561208857600354600090612053906001600160401b0316612a85565b90506000612075600360089054906101000a90046001600160401b0316612a85565b90506120818282612ad4565b9250505090565b5060145490565b6120a26001670de0b6b3a76400006132ef565b8211806120b45750655af3107a400082105b156120d2576040516326e445fb60e01b815260040160405180910390fd5b6120e56001670de0b6b3a76400006132ef565b8111806120f75750655af3107a400081105b15612115576040516326e445fb60e01b815260040160405180910390fd5b826000036121365760405163088bdee360e41b815260040160405180910390fd5b8284556001840192909255600060028401819055600384015560048301556005820155600601805468ffffffffffffffffff19166001600160401b03421617600160401b179055565b6006810154600090600160401b900460ff166121ae5760405163d3e5bda560e01b815260040160405180910390fd5b81600301548260020154116121c7578160030154611f8d565b506002015490565b600180546001600160a01b0319169055610d8081612b03565b6117f1828267016345785d8a0000662386f26fc1000061208f565b60028054036122545760405162461bcd60e51b815260206004820152601f60248201527f5265656e7472616e637947756172643a207265656e7472616e742063616c6c006044820152606401610d6e565b60028055565b6040516001600160a01b03808516602483015283166044820152606481018290526122929085906323b872dd60e01b90608401611d7d565b50505050565b6000806122a5600461217f565b90506000670de0b6b3a7640000600c54836122c09190613266565b6122ca919061327d565b6040516370a0823160e01b81526001600160a01b037f0000000000000000000000000000000000000000000000000000000000000000811660048301529192506000918616906370a0823190602401602060405180830381865afa158015612336573d6000803e3d6000fd5b505050506040513d601f19601f8201168201806040525081019061235a91906132d6565b9050600080821161236c576000612385565b81600d548861237b9190613266565b612385919061327d565b9050612391818461329f565b94506706f05b59d3b200008511156123af576706f05b59d3b2000094505b5050505092915050565b6000806000831561241857670de0b6b3a76400006123d78789613266565b6123e1919061327d565b90506123f585670de0b6b3a764000061329f565b612407670de0b6b3a764000083613266565b612411919061327d565b9250612461565b8561242b670de0b6b3a764000089613266565b612435919061327d565b9050670de0b6b3a764000061244a86826132ef565b6124549083613266565b61245e919061327d565b92505b82811161246f576000612479565b61247983826132ef565b91505094509492505050565b61248d612e71565b6006830154600160401b900460ff166124b95760405163d3e5bda560e01b815260040160405180910390fd5b816000036124da5760405163088bdee360e41b815260040160405180910390fd5b825460009083116124f75783546124f29084906132ef565b612503565b835461250390846132ef565b90506000846001015484116125275783856001015461252291906132ef565b612536565b600185015461253690856132ef565b905061254b8560000154858760040154612b53565b85556001850154600586015461256391908690612b53565b856001018190555061257e8560020154838760040154612bc5565b85600201819055506125998560030154828760050154612bc5565b6003860181905560068601805467ffffffffffffffff1916426001600160401b03161790558554600187015460028801546125d5936000612a28565b95945050505050565b600080670de0b6b3a7640000600c54846125f89190613266565b612602919061327d565b6040516370a0823160e01b81526001600160a01b037f0000000000000000000000000000000000000000000000000000000000000000811660048301529192506000918616906370a0823190602401602060405180830381865afa15801561266e573d6000803e3d6000fd5b505050506040513d601f19601f8201168201806040525081019061269291906132d6565b905060008082116126a45760006126bd565b81600d54886126b39190613266565b6126bd919061327d565b90506126c9818461329f565b93506706f05b59d3b200008411156126e7576706f05b59d3b2000093505b5050509392505050565b600080821561273f57670de0b6b3a764000061270d858261329f565b6127179087613266565b612721919061327d565b90508061272e8688613266565b612738919061327d565b9150612788565b670de0b6b3a764000061275285826132ef565b61275c9087613266565b612766919061327d565b90508061277b670de0b6b3a764000088613266565b612785919061327d565b91505b94509492505050565b600081156127bd57670de0b6b3a76400006127ac8487613266565b6127b6919061327d565b90506127dd565b826127d0670de0b6b3a764000087613266565b6127da919061327d565b90505b60008482116127ed5760006127f7565b6127f785836132ef565b9050821561281c5780600f6000828254612811919061329f565b909155506128349050565b80600e600082825461282e919061329f565b90915550505b6013546001600160a01b0316156128f557600061284f611db4565b60135460405160248101859052604481018390529192506000916001600160a01b039091169060640160408051601f198184030181529181526020820180516001600160e01b03166348c07f5b60e11b179052516128ad9190613234565b6000604051808303816000865af19150503d80600081146128ea576040519150601f19603f3d011682016040523d82523d6000602084013e6128ef565b606091505b50505050505b505050505050565b6000612952826040518060400160405280602081526020017f5361666545524332303a206c6f772d6c6576656c2063616c6c206661696c6564815250856001600160a01b0316612c499092919063ffffffff16565b90508051600014806129735750808060200190518101906129739190613302565b610a355760405162461bcd60e51b815260206004820152602a60248201527f5361666545524332303a204552433230206f7065726174696f6e20646964206e6044820152691bdd081cdd58d8d9595960b21b6064820152608401610d6e565b6000816000036129e55750612710611f8d565b60008284116129fd576129f884846132ef565b612a07565b612a0783856132ef565b905082612a1661271083613266565b612a20919061327d565b949350505050565b612a30612e71565b6000612a3c87876129d2565b90506040518060c00160405280888152602001878152602001868152602001858152602001828152602001600085118015612a7657508483115b15159052979650505050505050565b600080612a9183612c58565b9050806001600160401b0316600003612abc5760405162079e5b60e11b815260040160405180910390fd5b611fe46402540be4006001600160401b038316613266565b600081600003612ae657506000611f8d565b81612af9670de0b6b3a764000085613266565b611fe4919061327d565b600080546001600160a01b038381166001600160a01b0319831681178455604051919092169283917f8be0079c531659141344cd1fd0a4f28419497f9722a3daafe3b4186f6b6457e09190a35050565b6000838310612b9457670de0b6b3a7640000612b6f85856132ef565b612b799084613266565b612b83919061327d565b612b8d908561329f565b9050611fe4565b670de0b6b3a7640000612ba784866132ef565b612bb19084613266565b612bbb919061327d565b612b8d90856132ef565b600080670de0b6b3a7640000612bdb8580613266565b612be5919061327d565b90506000670de0b6b3a7640000612bfc8386613266565b612c06919061327d565b90506000670de0b6b3a764000087612c1e87836132ef565b612c289190613266565b612c32919061327d565b9050612c3e818361329f565b979650505050505050565b6060612a208484600085612d08565b604080516001600160401b038316602082015260009182918291610808910160408051601f1981840301815290829052612c9191613234565b600060405180830381855afa9150503d8060008114612ccc576040519150601f19603f3d011682016040523d82523d6000602084013e612cd1565b606091505b509150915081612cf457604051634c61a21360e11b815260040160405180910390fd5b80806020019051810190612a20919061331f565b606082471015612d695760405162461bcd60e51b815260206004820152602660248201527f416464726573733a20696e73756666696369656e742062616c616e636520666f6044820152651c8818d85b1b60d21b6064820152608401610d6e565b600080866001600160a01b03168587604051612d859190613234565b60006040518083038185875af1925050503d8060008114612dc2576040519150601f19603f3d011682016040523d82523d6000602084013e612dc7565b606091505b5091509150612c3e8783838760608315612e42578251600003612e3b576001600160a01b0385163b612e3b5760405162461bcd60e51b815260206004820152601d60248201527f416464726573733a2063616c6c20746f206e6f6e2d636f6e74726163740000006044820152606401610d6e565b5081612a20565b612a208383815115612e575781518083602001fd5b8060405162461bcd60e51b8152600401610d6e919061333c565b6040518060c0016040528060008152602001600081526020016000815260200160008152602001600081526020016000151581525090565b8015158114610d8057600080fd5b600060208284031215612ec957600080fd5b8135611fe481612ea9565b634e487b7160e01b600052604160045260246000fd5b600080600060608486031215612eff57600080fd5b833592506020840135915060408401356001600160401b0380821115612f2457600080fd5b818601915086601f830112612f3857600080fd5b813581811115612f4a57612f4a612ed4565b604051601f8201601f19908116603f01168101908382118183101715612f7257612f72612ed4565b81604052828152896020848701011115612f8b57600080fd5b8260208601602083013760006020848301015280955050505050509250925092565b80356001600160a01b0381168114612fc457600080fd5b919050565b600060208284031215612fdb57600080fd5b611fe482612fad565b60008060408385031215612ff757600080fd5b50508035926020909101359150565b60008060006060848603121561301b57600080fd5b833592506020840135915061303260408501612fad565b90509250925092565b60008060006060848603121561305057600080fd5b833561305b81612ea9565b95602085013595506040909401359392505050565b60008060006060848603121561308557600080fd5b61308e84612fad565b925061309c60208501612fad565b9150604084013590509250925092565b600080604083850312156130bf57600080fd5b823591506130cf60208401612fad565b90509250929050565b6001600160401b0381168114610d8057600080fd5b6000806040838503121561310057600080fd5b823561310b816130d8565b9150602083013561311b816130d8565b809150509250929050565b60006020828403121561313857600080fd5b5035919050565b60008083601f84011261315157600080fd5b5081356001600160401b0381111561316857600080fd5b60208301915083602082850101111561318057600080fd5b9250929050565b60008060008060008587036101008112156131a157600080fd5b60c08112156131af57600080fd5b5085945060c08601356001600160401b03808211156131cd57600080fd5b6131d989838a0161313f565b909650945060e08801359150808211156131f257600080fd5b506131ff8882890161313f565b969995985093965092949392505050565b60005b8381101561322b578181015183820152602001613213565b50506000910152565b60008251613246818460208701613210565b9190910192915050565b634e487b7160e01b600052601160045260246000fd5b8082028115828204841417611f8d57611f8d613250565b60008261329a57634e487b7160e01b600052601260045260246000fd5b500490565b80820180821115611f8d57611f8d613250565b600080604083850312156132c557600080fd5b505080516020909101519092909150565b6000602082840312156132e857600080fd5b5051919050565b81810381811115611f8d57611f8d613250565b60006020828403121561331457600080fd5b8151611fe481612ea9565b60006020828403121561333157600080fd5b8151611fe4816130d8565b602081526000825180602084015261335b816040850160208701613210565b601f01601f1916919091016040019291505056fea2646970667358221220f7fd4e90a051f1ef55716ffc137e407a90e5c3545ea8cf89e5bf2859f4aa2ddb64736f6c63430008130033",
  "linkReferences": {},
  "deployedLinkReferences": {}
}