{
  "_format": "hh-sol-artifact-1",
  "contractName": "LendingModule",
  "sourceName": "src/modules/LendingModule.sol",
  "abi": [
    {
      "inputs": [
        {
          "internalType": "address",
          "name": "_pool",
          "type": "address"
        },
        {
          "internalType": "address",
          "name": "_strategist",
          "type": "address"
        },
        {
          "internalType": "uint256",
          "name": "_minSupplyAmount",
          "type": "uint256"
        },
        {
          "internalType": "uint256",
          "name": "_cooldownBlocks",
          "type": "uint256"
        }
      ],
      "stateMutability": "nonpayable",
      "type": "constructor"
    },
    {
      "inputs": [],
      "name": "CoreWriterLib__CannotSelfTransfer",
      "type": "error"
    },
    {
      "inputs": [
        {
          "internalType": "uint256",
          "name": "amount",
          "type": "uint256"
        }
      ],
      "name": "CoreWriterLib__CoreAmountTooLarge",
      "type": "error"
    },
    {
      "inputs": [
        {
          "internalType": "uint256",
          "name": "amount",
          "type": "uint256"
        }
      ],
      "name": "CoreWriterLib__EvmAmountTooSmall",
      "type": "error"
    },
    {
      "inputs": [],
      "name": "CoreWriterLib__HypeTransferFailed",
      "type": "error"
    },
    {
      "inputs": [
        {
          "internalType": "uint64",
          "name": "token",
          "type": "uint64"
        }
      ],
      "name": "HLConversions__InvalidToken",
      "type": "error"
    },
    {
      "inputs": [],
      "name": "LendingModule__AmountTooSmall",
      "type": "error"
    },
    {
      "inputs": [],
      "name": "LendingModule__CooldownNotPassed",
      "type": "error"
    },
    {
      "inputs": [],
      "name": "LendingModule__InsufficientSupplied",
      "type": "error"
    },
    {
      "inputs": [],
      "name": "LendingModule__InvalidAmount",
      "type": "error"
    },
    {
      "inputs": [],
      "name": "LendingModule__OnlyPoolManager",
      "type": "error"
    },
    {
      "inputs": [],
      "name": "LendingModule__OnlyStrategist",
      "type": "error"
    },
    {
      "inputs": [],
      "name": "LendingModule__Paused",
      "type": "error"
    },
    {
      "inputs": [],
      "name": "LendingModule__TokenNotSupported",
      "type": "error"
    },
    {
      "inputs": [],
      "name": "LendingModule__ZeroAddress",
      "type": "error"
    },
    {
      "inputs": [],
      "name": "PrecompileLib__TokenInfoPrecompileFailed",
      "type": "error"
    },
    {
      "anonymous": false,
      "inputs": [
        {
          "indexed": false,
          "internalType": "uint256",
          "name": "minSupplyAmount",
          "type": "uint256"
        },
        {
          "indexed": false,
          "internalType": "uint256",
          "name": "cooldownBlocks",
          "type": "uint256"
        }
      ],
      "name": "ConfigUpdated",
      "type": "event"
    },
    {
      "anonymous": false,
      "inputs": [
        {
          "indexed": true,
          "internalType": "address",
          "name": "by",
          "type": "address"
        }
      ],
      "name": "Paused",
      "type": "event"
    },
    {
      "anonymous": false,
      "inputs": [
        {
          "indexed": true,
          "internalType": "address",
          "name": "oldStrategist",
          "type": "address"
        },
        {
          "indexed": true,
          "internalType": "address",
          "name": "newStrategist",
          "type": "address"
        }
      ],
      "name": "StrategistUpdated",
      "type": "event"
    },
    {
      "anonymous": false,
      "inputs": [
        {
          "indexed": true,
          "internalType": "address",
          "name": "token",
          "type": "address"
        },
        {
          "indexed": true,
          "internalType": "uint64",
          "name": "tokenIndex",
          "type": "uint64"
        },
        {
          "indexed": false,
          "internalType": "uint256",
          "name": "amount",
          "type": "uint256"
        },
        {
          "indexed": false,
          "internalType": "uint64",
          "name": "weiAmount",
          "type": "uint64"
        },
        {
          "indexed": true,
          "internalType": "address",
          "name": "sender",
          "type": "address"
        }
      ],
      "name": "SupplyToLending",
      "type": "event"
    },
    {
      "anonymous": false,
      "inputs": [
        {
          "indexed": true,
          "internalType": "address",
          "name": "token",
          "type": "address"
        },
        {
          "indexed": true,
          "internalType": "uint64",
          "name": "tokenIndex",
          "type": "uint64"
        }
      ],
      "name": "TokenIndexSet",
      "type": "event"
    },
    {
      "anonymous": false,
      "inputs": [
        {
          "indexed": true,
          "internalType": "address",
          "name": "by",
          "type": "address"
        }
      ],
      "name": "Unpaused",
      "type": "event"
    },
    {
      "anonymous": false,
      "inputs": [
        {
          "indexed": true,
          "internalType": "address",
          "name": "token",
          "type": "address"
        },
        {
          "indexed": true,
          "internalType": "uint64",
          "name": "tokenIndex",
          "type": "uint64"
        },
        {
          "indexed": false,
          "internalType": "uint256",
          "name": "amount",
          "type": "uint256"
        },
        {
          "indexed": false,
          "internalType": "uint64",
          "name": "weiAmount",
          "type": "uint64"
        },
        {
          "indexed": true,
          "internalType": "address",
          "name": "sender",
          "type": "address"
        }
      ],
      "name": "WithdrawFromLending",
      "type": "event"
    },
    {
      "inputs": [],
      "name": "BPS",
      "outputs": [
        {
          "internalType": "uint256",
          "name": "",
          "type": "uint256"
        }
      ],
      "stateMutability": "view",
      "type": "function"
    },
    {
      "inputs": [],
      "name": "CORE_WRITER",
      "outputs": [
        {
          "internalType": "address",
          "name": "",
          "type": "address"
        }
      ],
      "stateMutability": "view",
      "type": "function"
    },
    {
      "inputs": [],
      "name": "LENDING_ACTION_ID",
      "outputs": [
        {
          "internalType": "uint8",
          "name": "",
          "type": "uint8"
        }
      ],
      "stateMutability": "view",
      "type": "function"
    },
    {
      "inputs": [],
      "name": "OP_SUPPLY",
      "outputs": [
        {
          "internalType": "uint8",
          "name": "",
          "type": "uint8"
        }
      ],
      "stateMutability": "view",
      "type": "function"
    },
    {
      "inputs": [],
      "name": "OP_WITHDRAW",
      "outputs": [
        {
          "internalType": "uint8",
          "name": "",
          "type": "uint8"
        }
      ],
      "stateMutability": "view",
      "type": "function"
    },
    {
      "inputs": [],
      "name": "canOperate",
      "outputs": [
        {
          "internalType": "bool",
          "name": "",
          "type": "bool"
        }
      ],
      "stateMutability": "view",
      "type": "function"
    },
    {
      "inputs": [],
      "name": "cooldownBlocks",
      "outputs": [
        {
          "internalType": "uint256",
          "name": "",
          "type": "uint256"
        }
      ],
      "stateMutability": "view",
      "type": "function"
    },
    {
      "inputs": [
        {
          "internalType": "address",
          "name": "token",
          "type": "address"
        }
      ],
      "name": "getSuppliedAmount",
      "outputs": [
        {
          "internalType": "uint256",
          "name": "",
          "type": "uint256"
        }
      ],
      "stateMutability": "view",
      "type": "function"
    },
    {
      "inputs": [
        {
          "internalType": "address",
          "name": "token",
          "type": "address"
        }
      ],
      "name": "getTokenIndex",
      "outputs": [
        {
          "internalType": "uint64",
          "name": "",
          "type": "uint64"
        }
      ],
      "stateMutability": "view",
      "type": "function"
    },
    {
      "inputs": [],
      "name": "lastOperationBlock",
      "outputs": [
        {
          "internalType": "uint256",
          "name": "",
          "type": "uint256"
        }
      ],
      "stateMutability": "view",
      "type": "function"
    },
    {
      "inputs": [],
      "name": "minSupplyAmount",
      "outputs": [
        {
          "internalType": "uint256",
          "name": "",
          "type": "uint256"
        }
      ],
      "stateMutability": "view",
      "type": "function"
    },
    {
      "inputs": [],
      "name": "pause",
      "outputs": [],
      "stateMutability": "nonpayable",
      "type": "function"
    },
    {
      "inputs": [],
      "name": "paused",
      "outputs": [
        {
          "internalType": "bool",
          "name": "",
          "type": "bool"
        }
      ],
      "stateMutability": "view",
      "type": "function"
    },
    {
      "inputs": [],
      "name": "pool",
      "outputs": [
        {
          "internalType": "contract ISovereignPool",
          "name": "",
          "type": "address"
        }
      ],
      "stateMutability": "view",
      "type": "function"
    },
    {
      "inputs": [
        {
          "internalType": "address",
          "name": "token",
          "type": "address"
        },
        {
          "internalType": "uint256",
          "name": "amount",
          "type": "uint256"
        }
      ],
      "name": "previewSupplyAction",
      "outputs": [
        {
          "internalType": "bytes",
          "name": "",
          "type": "bytes"
        }
      ],
      "stateMutability": "view",
      "type": "function"
    },
    {
      "inputs": [
        {
          "internalType": "address",
          "name": "token",
          "type": "address"
        },
        {
          "internalType": "uint256",
          "name": "amount",
          "type": "uint256"
        }
      ],
      "name": "previewWithdrawAction",
      "outputs": [
        {
          "internalType": "bytes",
          "name": "",
          "type": "bytes"
        }
      ],
      "stateMutability": "view",
      "type": "function"
    },
    {
      "inputs": [
        {
          "internalType": "address",
          "name": "token",
          "type": "address"
        },
        {
          "internalType": "address",
          "name": "to",
          "type": "address"
        },
        {
          "internalType": "uint256",
          "name": "amount",
          "type": "uint256"
        }
      ],
      "name": "rescueTokens",
      "outputs": [],
      "stateMutability": "nonpayable",
      "type": "function"
    },
    {
      "inputs": [
        {
          "internalType": "uint256",
          "name": "_minSupplyAmount",
          "type": "uint256"
        },
        {
          "internalType": "uint256",
          "name": "_cooldownBlocks",
          "type": "uint256"
        }
      ],
      "name": "setConfig",
      "outputs": [],
      "stateMutability": "nonpayable",
      "type": "function"
    },
    {
      "inputs": [
        {
          "internalType": "address",
          "name": "_newStrategist",
          "type": "address"
        }
      ],
      "name": "setStrategist",
      "outputs": [],
      "stateMutability": "nonpayable",
      "type": "function"
    },
    {
      "inputs": [
        {
          "internalType": "address",
          "name": "token",
          "type": "address"
        },
        {
          "internalType": "uint64",
          "name": "tokenIndex",
          "type": "uint64"
        }
      ],
      "name": "setTokenIndex",
      "outputs": [],
      "stateMutability": "nonpayable",
      "type": "function"
    },
    {
      "inputs": [
        {
          "internalType": "address[]",
          "name": "tokens",
          "type": "address[]"
        },
        {
          "internalType": "uint64[]",
          "name": "indices",
          "type": "uint64[]"
        }
      ],
      "name": "setTokenIndices",
      "outputs": [],
      "stateMutability": "nonpayable",
      "type": "function"
    },
    {
      "inputs": [],
      "name": "strategist",
      "outputs": [
        {
          "internalType": "address",
          "name": "",
          "type": "address"
        }
      ],
      "stateMutability": "view",
      "type": "function"
    },
    {
      "inputs": [
        {
          "internalType": "address",
          "name": "token",
          "type": "address"
        },
        {
          "internalType": "uint256",
          "name": "amount",
          "type": "uint256"
        }
      ],
      "name": "supply",
      "outputs": [],
      "stateMutability": "nonpayable",
      "type": "function"
    },
    {
      "inputs": [
        {
          "internalType": "address",
          "name": "token",
          "type": "address"
        },
        {
          "internalType": "uint256",
          "name": "amount",
          "type": "uint256"
        }
      ],
      "name": "supplyToLending",
      "outputs": [],
      "stateMutability": "nonpayable",
      "type": "function"
    },
    {
      "inputs": [
        {
          "internalType": "address",
          "name": "",
          "type": "address"
        }
      ],
      "name": "tokenIndices",
      "outputs": [
        {
          "internalType": "uint64",
          "name": "",
          "type": "uint64"
        }
      ],
      "stateMutability": "view",
      "type": "function"
    },
    {
      "inputs": [
        {
          "internalType": "address",
          "name": "",
          "type": "address"
        }
      ],
      "name": "totalSupplied",
      "outputs": [
        {
          "internalType": "uint256",
          "name": "",
          "type": "uint256"
        }
      ],
      "stateMutability": "view",
      "type": "function"
    },
    {
      "inputs": [],
      "name": "unpause",
      "outputs": [],
      "stateMutability": "nonpayable",
      "type": "function"
    },
    {
      "inputs": [
        {
          "internalType": "address",
          "name": "token",
          "type": "address"
        },
        {
          "internalType": "uint256",
          "name": "amount",
          "type": "uint256"
        },
        {
          "internalType": "address",
          "name": "recipient",
          "type": "address"
        }
      ],
      "name": "withdraw",
      "outputs": [],
      "stateMutability": "nonpayable",
      "type": "function"
    },
    {
      "inputs": [
        {
          "internalType": "address",
          "name": "token",
          "type": "address"
        },
        {
          "internalType": "uint256",
          "name": "amount",
          "type": "uint256"
        }
      ],
      "name": "withdrawFromLending",
      "outputs": [],
      "stateMutability": "nonpayable",
      "type": "function"
    }
  ],
  "bytecode": "0x60a06040523480156200001157600080fd5b5060405162002cd638038062002cd68339810160408190526200003491620000d7565b6001600160a01b0384166200005c57604051632afbaeed60e21b815260040160405180910390fd5b6001600160a01b0383166200008457604051632afbaeed60e21b815260040160405180910390fd5b6001600160a01b03938416608052600080546001600160a01b03191693909416929092179092556003919091556004556200011f565b80516001600160a01b0381168114620000d257600080fd5b919050565b60008060008060808587031215620000ee57600080fd5b620000f985620000ba565b93506200010960208601620000ba565b6040860151606090960151949790965092505050565b608051612b4e6200018860003960008181610218015281816104c0015281816105ba015281816106ba015281816109bb01528181610ce701528181610dea0152818161108e015281816112c1015281816113d60152818161154001526116490152612b4e6000f3fe608060405234801561001057600080fd5b50600436106101cf5760003560e01c80635f250f69116101045780639ebe978b116100a2578063c8542a5d11610071578063c8542a5d14610431578063cea9d26f14610444578063f2b9fdb814610457578063fc4e58021461046a57600080fd5b80639ebe978b146103e5578063b23579ff146103f8578063b59279331461040b578063c7b9d5301461041e57600080fd5b80636bbe56cf116100de5780636bbe56cf1461038c57806375ff724c146103ac5780637e8e1b84146103b45780638456cb59146103dd57600080fd5b80635f250f691461032757806366c0bd241461032f57806369328dec1461037957600080fd5b80631fe4a686116101715780633f4ba83a1161014b5780633f4ba83a146102c65780634f8e33f0146102ce578063554cbef6146102f75780635c975abb1461030a57600080fd5b80631fe4a6861461028f578063249d39e9146102a257806327c37b3d146102ab57600080fd5b806316f0115b116101ad57806316f0115b1461021357806318cb6fc1146102525780631be94ad2146102725780631e34c5851461027a57600080fd5b8063048398c5146101d45780630baa9ed6146101f057806310f7e9e3146101f9575b600080fd5b6101dd60035481565b6040519081526020015b60405180910390f35b6101dd60045481565b610201600081565b60405160ff90911681526020016101e7565b61023a7f000000000000000000000000000000000000000000000000000000000000000081565b6040516001600160a01b0390911681526020016101e7565b61026561026036600461237b565b610473565b6040516101e791906123f7565b610201600f81565b61028d61028836600461240a565b6104be565b005b60005461023a906001600160a01b031681565b6101dd61271081565b61023a73333333333333333333333333333333333333333381565b61028d6105b8565b6101dd6102dc36600461242c565b6001600160a01b031660009081526002602052604090205490565b61028d61030536600461237b565b6106a2565b6006546103179060ff1681565b60405190151581526020016101e7565b610201600181565b61036161033d36600461242c565b6001600160a01b03166000908152600160205260409020546001600160401b031690565b6040516001600160401b0390911681526020016101e7565b61028d610387366004612449565b6109a3565b6101dd61039a36600461242c565b60026020526000908152604090205481565b610317610ccb565b6103616103c236600461242c565b6001602052600090815260409020546001600160401b031681565b61028d610ce5565b61028d6103f336600461237b565b610dd2565b61028d6104063660046124d6565b61108c565b61028d610419366004612556565b6112bf565b61028d61042c36600461242c565b6113d4565b61026561043f36600461237b565b6114fe565b61028d61045236600461258f565b61153e565b61028d61046536600461237b565b611631565b6101dd60055481565b6001600160a01b0382166000908152600160205260408120546060916001600160401b03909116906104a5828561175f565b90506104b360018383611772565b925050505b92915050565b7f00000000000000000000000000000000000000000000000000000000000000006001600160a01b031663dc4c90d36040518163ffffffff1660e01b8152600401602060405180830381865afa15801561051c573d6000803e3d6000fd5b505050506040513d601f19601f8201168201806040525081019061054091906125e0565b6001600160a01b0316336001600160a01b031614610571576040516379621c5b60e11b815260040160405180910390fd5b6003829055600481905560408051838152602081018390527f0936b3616d5072fa8f7381ef8e7c35d39bed9ecfb2184e908a56027ad5c0b6bc910160405180910390a15050565b7f00000000000000000000000000000000000000000000000000000000000000006001600160a01b031663dc4c90d36040518163ffffffff1660e01b8152600401602060405180830381865afa158015610616573d6000803e3d6000fd5b505050506040513d601f19601f8201168201806040525081019061063a91906125e0565b6001600160a01b0316336001600160a01b03161461066b576040516379621c5b60e11b815260040160405180910390fd5b6006805460ff1916905560405133907f5db9ee0a495bf2e6ff9c91a7834c1ba4fdd244a5e8aa4e537bd38aeae4b073aa90600090a2565b6000546001600160a01b0316331480159061075057507f00000000000000000000000000000000000000000000000000000000000000006001600160a01b031663dc4c90d36040518163ffffffff1660e01b8152600401602060405180830381865afa158015610716573d6000803e3d6000fd5b505050506040513d601f19601f8201168201806040525081019061073a91906125e0565b6001600160a01b0316336001600160a01b031614155b1561076e576040516361f16dc560e11b815260040160405180910390fd5b60065460ff1615610792576040516371367db960e01b815260040160405180910390fd5b6004546005546107a29190612613565b4310156107c2576040516348a8be6960e11b815260040160405180910390fd5b6001600160a01b0382166000908152600160205260409020546001600160401b0316801580156107fa57506001600160a01b03831615155b15610818576040516357a6000f60e01b815260040160405180910390fd5b60008211801561083f57506001600160a01b03831660009081526002602052604090205482115b1561085d57604051630bc9242760e11b815260040160405180910390fd5b60006108698284611947565b4360055590506000839003610896576001600160a01b0384166000908152600260205260408120556108c4565b6001600160a01b038416600090815260026020526040812080548592906108be908490612626565b90915550505b60006108d260018484611772565b6040516317938e1360e01b8152909150733333333333333333333333333333333333333333906317938e139061090c9084906004016123f7565b600060405180830381600087803b15801561092657600080fd5b505af115801561093a573d6000803e3d6000fd5b505050506109488585611a40565b604080518581526001600160401b0384811660208301523392908616916001600160a01b038916917f6b633eca1decca769cc0eb87fe3c04a5a3efcc5a02463e9826039211576d54e991015b60405180910390a45050505050565b6000546001600160a01b03163314801590610a5157507f00000000000000000000000000000000000000000000000000000000000000006001600160a01b031663dc4c90d36040518163ffffffff1660e01b8152600401602060405180830381865afa158015610a17573d6000803e3d6000fd5b505050506040513d601f19601f82011682018060405250810190610a3b91906125e0565b6001600160a01b0316336001600160a01b031614155b15610a6f576040516361f16dc560e11b815260040160405180910390fd5b60065460ff1615610a93576040516371367db960e01b815260040160405180910390fd5b600454600554610aa39190612613565b431015610ac3576040516348a8be6960e11b815260040160405180910390fd5b6001600160a01b038116610aea57604051632afbaeed60e21b815260040160405180910390fd5b6001600160a01b0383166000908152600160205260409020546001600160401b031680158015610b2257506001600160a01b03841615155b15610b40576040516357a6000f60e01b815260040160405180910390fd5b600083118015610b6757506001600160a01b03841660009081526002602052604090205483115b15610b8557604051630bc9242760e11b815260040160405180910390fd5b6000610b918285611947565b4360055590506000849003610bbe576001600160a01b038516600090815260026020526040812055610bec565b6001600160a01b03851660009081526002602052604081208054869290610be6908490612626565b90915550505b6000610bfa60018484611772565b6040516317938e1360e01b8152909150733333333333333333333333333333333333333333906317938e1390610c349084906004016123f7565b600060405180830381600087803b158015610c4e57600080fd5b505af1158015610c62573d6000803e3d6000fd5b50505050610c708486611a40565b604080518681526001600160401b0384811660208301523392908616916001600160a01b038a16917f6b633eca1decca769cc0eb87fe3c04a5a3efcc5a02463e9826039211576d54e9910160405180910390a4505050505050565b6000600454600554610cdd9190612613565b431015905090565b7f00000000000000000000000000000000000000000000000000000000000000006001600160a01b031663dc4c90d36040518163ffffffff1660e01b8152600401602060405180830381865afa158015610d43573d6000803e3d6000fd5b505050506040513d601f19601f82011682018060405250810190610d6791906125e0565b6001600160a01b0316336001600160a01b031614610d98576040516379621c5b60e11b815260040160405180910390fd5b6006805460ff1916600117905560405133907f62e78cea01bee320cd4e420270b5ea74000d11b0c9f74754ebdbfc544b05a25890600090a2565b6000546001600160a01b03163314801590610e8057507f00000000000000000000000000000000000000000000000000000000000000006001600160a01b031663dc4c90d36040518163ffffffff1660e01b8152600401602060405180830381865afa158015610e46573d6000803e3d6000fd5b505050506040513d601f19601f82011682018060405250810190610e6a91906125e0565b6001600160a01b0316336001600160a01b031614155b15610e9e576040516361f16dc560e11b815260040160405180910390fd5b60065460ff1615610ec2576040516371367db960e01b815260040160405180910390fd5b600454600554610ed29190612613565b431015610ef2576040516348a8be6960e11b815260040160405180910390fd5b6001600160a01b0382166000908152600160205260409020546001600160401b031680158015610f2a57506001600160a01b03831615155b15610f48576040516357a6000f60e01b815260040160405180910390fd5b60035482108015610f5857508115155b15610f7657604051631e92f9bd60e21b815260040160405180910390fd5b6000610f828284611947565b436005556001600160a01b038516600090815260026020526040812080549293508592909190610fb3908490612613565b90915550610fc390508484611a59565b6000610fd160008484611772565b6040516317938e1360e01b8152909150733333333333333333333333333333333333333333906317938e139061100b9084906004016123f7565b600060405180830381600087803b15801561102557600080fd5b505af1158015611039573d6000803e3d6000fd5b5050604080518781526001600160401b038681166020830152339450871692506001600160a01b038916917f178986ac214bb46529b7f32217c827e15b44e76606d5177fc0ef36da20eb559c9101610994565b7f00000000000000000000000000000000000000000000000000000000000000006001600160a01b031663dc4c90d36040518163ffffffff1660e01b8152600401602060405180830381865afa1580156110ea573d6000803e3d6000fd5b505050506040513d601f19601f8201168201806040525081019061110e91906125e0565b6001600160a01b0316336001600160a01b03161461113f576040516379621c5b60e11b815260040160405180910390fd5b8281146111855760405162461bcd60e51b815260206004820152600f60248201526e098cadccee8d040dad2e6dac2e8c6d608b1b60448201526064015b60405180910390fd5b60005b838110156112b8578282828181106111a2576111a2612639565b90506020020160208101906111b7919061264f565b600160008787858181106111cd576111cd612639565b90506020020160208101906111e2919061242c565b6001600160a01b031681526020810191909152604001600020805467ffffffffffffffff19166001600160401b039290921691909117905582828281811061122c5761122c612639565b9050602002016020810190611241919061264f565b6001600160401b031685858381811061125c5761125c612639565b9050602002016020810190611271919061242c565b6001600160a01b03167f05f270a9cb20f8ef16c8a64323e27eea866dd656e443be7d9272ca77038aca7560405160405180910390a3806112b08161266c565b915050611188565b5050505050565b7f00000000000000000000000000000000000000000000000000000000000000006001600160a01b031663dc4c90d36040518163ffffffff1660e01b8152600401602060405180830381865afa15801561131d573d6000803e3d6000fd5b505050506040513d601f19601f8201168201806040525081019061134191906125e0565b6001600160a01b0316336001600160a01b031614611372576040516379621c5b60e11b815260040160405180910390fd5b6001600160a01b038216600081815260016020526040808220805467ffffffffffffffff19166001600160401b03861690811790915590519092917f05f270a9cb20f8ef16c8a64323e27eea866dd656e443be7d9272ca77038aca7591a35050565b7f00000000000000000000000000000000000000000000000000000000000000006001600160a01b031663dc4c90d36040518163ffffffff1660e01b8152600401602060405180830381865afa158015611432573d6000803e3d6000fd5b505050506040513d601f19601f8201168201806040525081019061145691906125e0565b6001600160a01b0316336001600160a01b031614611487576040516379621c5b60e11b815260040160405180910390fd5b6001600160a01b0381166114ae57604051632afbaeed60e21b815260040160405180910390fd5b600080546001600160a01b038381166001600160a01b0319831681178455604051919092169283917ff6a8d961ba4f41874e38ad8bed56ca4bcf2356a3dd5bfa626b8a73a0da9f5c699190a35050565b6001600160a01b0382166000908152600160205260408120546060916001600160401b0390911690611530828561175f565b90506104b360008383611772565b7f00000000000000000000000000000000000000000000000000000000000000006001600160a01b031663dc4c90d36040518163ffffffff1660e01b8152600401602060405180830381865afa15801561159c573d6000803e3d6000fd5b505050506040513d601f19601f820116820180604052508101906115c091906125e0565b6001600160a01b0316336001600160a01b0316146115f1576040516379621c5b60e11b815260040160405180910390fd5b6001600160a01b03821661161857604051632afbaeed60e21b815260040160405180910390fd5b61162c6001600160a01b0384168383611a70565b505050565b6000546001600160a01b031633148015906116df57507f00000000000000000000000000000000000000000000000000000000000000006001600160a01b031663dc4c90d36040518163ffffffff1660e01b8152600401602060405180830381865afa1580156116a5573d6000803e3d6000fd5b505050506040513d601f19601f820116820180604052508101906116c991906125e0565b6001600160a01b0316336001600160a01b031614155b156116fd576040516361f16dc560e11b815260040160405180910390fd5b60065460ff1615611721576040516371367db960e01b815260040160405180910390fd5b6004546005546117319190612613565b431015611751576040516348a8be6960e11b815260040160405180910390fd5b61175b8282610ef2565b5050565b600061176b8383611947565b9392505050565b606060008484846040516020016117aa9392919060ff9390931683526001600160401b03918216602084015216604082015260600190565b60405160208183030381529060405290506000815160046117cb9190612613565b6001600160401b038111156117e2576117e2612685565b6040519080825280601f01601f19166020018201604052801561180c576020820181803683370190505b509050600160f81b8160008151811061182757611827612639565b60200101906001600160f81b031916908160001a905350600060f81b8160018151811061185657611856612639565b60200101906001600160f81b031916908160001a905350600060f81b8160028151811061188557611885612639565b60200101906001600160f81b031916908160001a905350600f60f81b816003815181106118b4576118b4612639565b60200101906001600160f81b031916908160001a90535060005b825181101561193d578281815181106118e9576118e9612639565b01602001516001600160f81b03191682611904836004612613565b8151811061191457611914612639565b60200101906001600160f81b031916908160001a905350806119358161266c565b9150506118ce565b5095945050505050565b6000806119598463ffffffff16611ac2565b60808101519091506001600160a01b0316156119ea5760008160e0015160000b13156119b05760008160e00151600a611992919061277f565b61199c908561278e565b90506119a781611bb9565b925050506104b8565b60008160e0015160000b12156119e55760008160e001516119d0906127b0565b6119db90600a61277f565b61199c90856127ce565b611a1d565b6119f384611c25565b15611a1d57611a15611a06600a8061277f565b611a10908561278e565b611bb9565b9150506104b8565b6040516208ebed60e21b81526001600160401b038516600482015260240161117c565b6000611a4b83611c4a565b905061162c81836001611cfc565b6000611a6483611c4a565b905061162c8183611d88565b604080516001600160a01b038416602482015260448082018490528251808303909101815260649091019091526020810180516001600160e01b031663a9059cbb60e01b17905261162c908490611f8f565b6040805161010081018252606080825260208201819052600092820183905281018290526080810182905260a0810182905260c0810182905260e0810191909152604080516001600160401b0384166020820152600091829161080c910160408051601f1981840301815290829052611b3a916127e5565b600060405180830381855afa9150503d8060008114611b75576040519150601f19603f3d011682016040523d82523d6000602084013e611b7a565b606091505b509150915081611b9d5760405163ee6b81c560e01b815260040160405180910390fd5b80806020019051810190611bb19190612968565b949350505050565b60006001600160401b03821115611c215760405162461bcd60e51b815260206004820152602660248201527f53616665436173743a2076616c756520646f65736e27742066697420696e203660448201526534206269747360d01b606482015260840161117c565b5090565b6000611c2f612064565b6001600160401b0316826001600160401b0316149050919050565b6000611c54612083565b6001600160a01b0316826001600160a01b031603611c7457506000919050565b6040516319b02f4960e21b81526001600160a01b0383166004820152730b51d1a9098cf8a72c325003f44c194d41d7a85b906366c0bd2490602401602060405180830381865afa158015611ccc573d6000803e3d6000fd5b505050506040513d601f19601f82011682018060405250810190611cf09190612a5f565b63ffffffff1692915050565b6000611d07846120c0565b905060008215611d4f57611d1b8585611947565b9050806001600160401b0316600003611d4a576040516322b20dd160e11b81526004810185905260240161117c565b611d7d565b6001600160401b03841115611d7a576040516342be65c760e11b81526004810185905260240161117c565b50825b6112b8828683612114565b6000611d92612203565b90506000611da08484611947565b9050806001600160401b0316600003611dcf576040516322b20dd160e11b81526004810184905260240161117c565b6000611dda856120c0565b90506001600160401b038516611ed157611df2612083565b60405163095ea7b360e01b81526001600160a01b03858116600483015260248201879052919091169063095ea7b3906044016020604051808303816000875af1158015611e43573d6000803e3d6000fd5b505050506040513d601f19601f82011682018060405250810190611e679190612a85565b50604051630acb7f4b60e21b81526004810185905263ffffffff60248201526001600160a01b03841690632b2dfd2c90604401600060405180830381600087803b158015611eb457600080fd5b505af1158015611ec8573d6000803e3d6000fd5b505050506112b8565b611eda85611c25565b15611f59576000816001600160a01b03168560405160006040518083038185875af1925050503d8060008114611f2c576040519150601f19603f3d011682016040523d82523d6000602084013e611f31565b606091505b5050905080611f53576040516373566f9960e11b815260040160405180910390fd5b506112b8565b6000611f6a8663ffffffff16611ac2565b6080810151909150611f866001600160a01b0382168488611a70565b50505050505050565b6000611fe4826040518060400160405280602081526020017f5361666545524332303a206c6f772d6c6576656c2063616c6c206661696c6564815250856001600160a01b03166122409092919063ffffffff16565b90508051600014806120055750808060200190518101906120059190612a85565b61162c5760405162461bcd60e51b815260206004820152602a60248201527f5361666545524332303a204552433230206f7065726174696f6e20646964206e6044820152691bdd081cdd58d8d9595960b21b606482015260840161117c565b6000466103e61461207657609661207a565b6104515b61ffff16905090565b6000466103e6146120a7575073b88339cb7199b77e23db6e890353e22632ba630f90565b50732b3370ee501b4a559b57d449569354196457d8ab90565b60006120ca612064565b6001600160401b0316826001600160401b0316036120fd5750732222222222222222222222222222222222222222919050565b6104b86001600160401b0383166001609d1b612aa7565b306001600160a01b0384160361213d5760405163cd64884160e01b815260040160405180910390fd5b604080516001600160a01b03851660208201526001600160401b038481168284015283166060808301919091528251808303909101815260808201909252733333333333333333333333333333333333333333916317938e13916121aa916001916006919060a001612ace565b6040516020818303038152906040526040518263ffffffff1660e01b81526004016121d591906123f7565b600060405180830381600087803b1580156121ef57600080fd5b505af1158015611f86573d6000803e3d6000fd5b6000466103e6146122275750736b9e773128f453f5c2c60935ee2de2cbc5390a2490565b50730b80659a4076e9e93c7dbe0f10675a16a3e5c20690565b6060611bb1848460008585600080866001600160a01b0316858760405161226791906127e5565b60006040518083038185875af1925050503d80600081146122a4576040519150601f19603f3d011682016040523d82523d6000602084013e6122a9565b606091505b50915091506122ba878383876122c5565b979650505050505050565b6060831561233457825160000361232d576001600160a01b0385163b61232d5760405162461bcd60e51b815260206004820152601d60248201527f416464726573733a2063616c6c20746f206e6f6e2d636f6e7472616374000000604482015260640161117c565b5081611bb1565b611bb183838151156123495781518083602001fd5b8060405162461bcd60e51b815260040161117c91906123f7565b6001600160a01b038116811461237857600080fd5b50565b6000806040838503121561238e57600080fd5b823561239981612363565b946020939093013593505050565b60005b838110156123c25781810151838201526020016123aa565b50506000910152565b600081518084526123e38160208601602086016123a7565b601f01601f19169290920160200192915050565b60208152600061176b60208301846123cb565b6000806040838503121561241d57600080fd5b50508035926020909101359150565b60006020828403121561243e57600080fd5b813561176b81612363565b60008060006060848603121561245e57600080fd5b833561246981612363565b925060208401359150604084013561248081612363565b809150509250925092565b60008083601f84011261249d57600080fd5b5081356001600160401b038111156124b457600080fd5b6020830191508360208260051b85010111156124cf57600080fd5b9250929050565b600080600080604085870312156124ec57600080fd5b84356001600160401b038082111561250357600080fd5b61250f8883890161248b565b9096509450602087013591508082111561252857600080fd5b506125358782880161248b565b95989497509550505050565b6001600160401b038116811461237857600080fd5b6000806040838503121561256957600080fd5b823561257481612363565b9150602083013561258481612541565b809150509250929050565b6000806000606084860312156125a457600080fd5b83356125af81612363565b925060208401356125bf81612363565b929592945050506040919091013590565b80516125db81612363565b919050565b6000602082840312156125f257600080fd5b815161176b81612363565b634e487b7160e01b600052601160045260246000fd5b808201808211156104b8576104b86125fd565b818103818111156104b8576104b86125fd565b634e487b7160e01b600052603260045260246000fd5b60006020828403121561266157600080fd5b813561176b81612541565b60006001820161267e5761267e6125fd565b5060010190565b634e487b7160e01b600052604160045260246000fd5b600181815b808511156126d65781600019048211156126bc576126bc6125fd565b808516156126c957918102915b93841c93908002906126a0565b509250929050565b6000826126ed575060016104b8565b816126fa575060006104b8565b8160018114612710576002811461271a57612736565b60019150506104b8565b60ff84111561272b5761272b6125fd565b50506001821b6104b8565b5060208310610133831016604e8410600b8410161715612759575081810a6104b8565b612763838361269b565b8060001904821115612777576127776125fd565b029392505050565b600061176b60ff8416836126de565b6000826127ab57634e487b7160e01b600052601260045260246000fd5b500490565b600081810b608081016127c5576127c56125fd565b60000392915050565b80820281158282048414176104b8576104b86125fd565b600082516127f78184602087016123a7565b9190910192915050565b60405161010081016001600160401b038111828210171561282457612824612685565b60405290565b604051601f8201601f191681016001600160401b038111828210171561285257612852612685565b604052919050565b600082601f83011261286b57600080fd5b81516001600160401b0381111561288457612884612685565b612897601f8201601f191660200161282a565b8181528460208386010111156128ac57600080fd5b611bb18260208301602087016123a7565b80516125db81612541565b600082601f8301126128d957600080fd5b815160206001600160401b038211156128f4576128f4612685565b8160051b61290382820161282a565b928352848101820192828101908785111561291d57600080fd5b83870192505b848310156122ba57825161293681612541565b82529183019190830190612923565b805160ff811681146125db57600080fd5b8051600081900b81146125db57600080fd5b60006020828403121561297a57600080fd5b81516001600160401b038082111561299157600080fd5b9083019061010082860312156129a657600080fd5b6129ae612801565b8251828111156129bd57600080fd5b6129c98782860161285a565b8252506020830151828111156129de57600080fd5b6129ea878286016128c8565b6020830152506129fc604084016128bd565b6040820152612a0d606084016125d0565b6060820152612a1e608084016125d0565b6080820152612a2f60a08401612945565b60a0820152612a4060c08401612945565b60c0820152612a5160e08401612956565b60e082015295945050505050565b600060208284031215612a7157600080fd5b815163ffffffff8116811461176b57600080fd5b600060208284031215612a9757600080fd5b8151801515811461176b57600080fd5b6001600160a01b03818116838216019080821115612ac757612ac76125fd565b5092915050565b60f884901b6001600160f81b031916815260e883901b6001600160e81b03191660018201528151600090612b098160048501602087016123a7565b9190910160040194935050505056fea2646970667358221220972838f4a9f84b20ce3a11aa272c0c0ecc0c2bd9564d7ac7043159a083a7741964736f6c63430008130033",
  "linkReferences": {},
  "deployedLinkReferences": {}
}